:100000008A110428FF3FFF3F8A1106288A153F27DF
:100010008A11D8008A1540278A11D9008A154127EC
:100020008A11DA008313A0308400E0308A15772724
:100030008A112030840042308A1577278A11830183
:100040008A11602FF301F4018A11E3278A112E2807
:100050000130F3070318F40A0030F407E13084009C
:10006000843083120313FF008A1100218A11F100EA
:100070008A1100218A11F20072087402031D4228BD
:1000800071087302031C4528462828280800F4003C
:10009000F501F6015C2875087107F200720884000A
:1000A000FF308A15B1278A11831380000130F507CC
:1000B0000318F60A0030F6077408F200F30173081B
:1000C0007602031D652872087502031C68286928DA
:1000D0004B28080083120313CC00C601C70100306F
:1000E0008A11BB278A1102308A15E8278A118312E8
:1000F0000313C2014908CA00CB014A08C3004B08D8
:10010000C4000830C5000830C6000830C7004C08DD
:100110008A11CA208A110800F400F501F601A0280E
:1001200075087107F20072088400831300088A15AD
:100130008A278A110130F5070318F60A0030F607FE
:100140007408F200F30173087602031DA9287208EF
:100150007502031CAC28AD2890280800FD00B328C8
:100160008A1571278A118312031330080319B928DD
:10017000BA28B0288A1542278A117C08F1007D0828
:100180008A118C208A118A1546278A11831203133B
:10019000B001080083120313C8003230B2004808CF
:1001A000B3004208B4004408B5004308B60045084F
:1001B000B7004608B8004708B9003230FC000830E4
:1001C0008A11AE208A1108008A155B278A11003037
:1001D00083120313CB000030CA002530C9008030E1
:1001E000C8008A112D268A118A15D2278A118A15EC
:1001F00056278A118A153C278A110800FF3FFF3FC6
:10020000FF1B0A2983137F1883170008840A031928
:10021000FF0A08007F087F398A000408840A03194E
:10022000FF0A820008340434213471344B34003422
:100230000034DC34953408340534A63422342134B7
:10024000F03441345B3426340834E2342F341C3427
:10025000BB340A34A8349434283408340534873441
:100260006734E23458341A3407345B340834E134E8
:10027000D0347234D8348A34B8345B347D340834A2
:1002800005341134EC349E34283423341B346D345B
:100290000834E2344F348A34B234A9342934143463
:1002A000133408340534D1342E3471346A34513463
:1002B0004C342C340834E534803427344234A434AC
:1002C0006934B0347F3408340534AA3481342A3494
:1002D000BD344534E834A8340834EA34E434F03426
:1002E0002434C9349F34CC343C34083405340834C5
:1002F000F534053404342734623498340834EA344D
:100300006B3462348434A134F9344A34E23408342E
:100310000534E934773405344F348434EE343534DD
:100320000834E2344334C3348D34FB34AD345434B4
:10033000253408340534143406345E343934363404
:100340002F3445340834EA340C341C347434D0343B
:100350001134FC34323408340534DA343834BA34E5
:100360000E343C34E7348B340834EA34B034093486
:10037000E634FF349434BB34A93408340534D7341C
:1003800011342934FE34DC347134D5340834EA3481
:100390007F348334A73460349034623418340834A2
:1003A000053484347F346A34D1349134C6345234C1
:1003B0000834EA342A34D8347B348E344A349F34B7
:1003C000913408340534BD34AA349D3416341834BD
:1003D000063415340834E2345534AD342D340A343F
:1003E00014341F345D3408340534D334E0347C34A1
:1003F0003934CF340134F0340834EF343A349134A2
:1004000072346A340334BB3496340834E7348334AA
:100410006D34A4349234FC341334A7340834EF34EC
:10042000F834FD34CF34623407346F341E3408346A
:10043000E7344C34EA344A3475344F34D634CF344C
:100440000834E234F6341134E43426340D344D34B7
:10045000C63408340534FB34BF34E83407348934F7
:10046000C33451340834EF348234273404343F34F5
:100470009634A83458340834E734413429343C34B1
:1004800075342A3403341C340834EF34AF3459340F
:1004900098343634AA340F3406340834E634F6344B
:1004A000933441342D34EC340E349934083405340B
:1004B000293419349034E534AA34363440340834BD
:1004C000E734FB34683410347D3477345D34C03421
:1004D0000834E734CB34B434DD34CE34903454347F
:1004E000BE340834E73472348A34D6340234F434F7
:1004F000DD34CC340834E7346A3421340B3402342C
:100500008634EC3415340834E7347B347C343D34A1
:100510006B3481340334D0340834EF347D346134A7
:10052000363494347C34A034DF340834EF34CC34A3
:1005300085343B34DA34E0345C341C340834E7343A
:10054000E3347534BB34393422344B34A8340834A2
:10055000EF34F934CE34E0345E34EB341D34CB3434
:100560000834E734BD34E2347034D534AB344E341F
:100570003F340834E734B7348D34203468346B3476
:10058000093452340834EF34A1341B349034CD3460
:100590009834003463340834EF34543467345D34B1
:1005A0009C341134FC3445340834E734D4349B345F
:1005B000C8349734BE348A3407340834EF345234A4
:1005C0008D34903463347334D5342A340834EF34A2
:1005D0000334BC346E341C347634BE344A340834AC
:1005E000E734C234ED346734BA345E3466342134CF
:1005F0000834EF34E7343F348734BE34E0347A349F
:100600006D340834E734C934703493341D346434A1
:10061000F5346C340834EF34F53428340834343489
:10062000B334B6342C340834EF343A340A34EC346E
:100630000F34DB345634CA340834EF343934A03440
:100640006E34ED347934D03424340834E7346C34E7
:100650000B34AF34A9344E344034B5340834E93463
:10066000B934AF34BF3425345034D134373408343E
:1006700005349E34DB34DE343F349434E9346B3457
:100680000834EC34C5340534AA345734DC348A34A5
:100690005E34083405347034DA3484348434DD3420
:1006A000CA34903407340234813400340134C934FC
:1006B000C33480340834133400340034003400343C
:1006C0000034003400340634113400340134003472
:1006D0000034003405341134003401340334203440
:1006E000063411340134023400340134383408340F
:1006F0001134023404340034003400340034003443
:100700000D341134103409340034083414340034F6
:100710000F34313400340034003400340A341134DE
:100720001134063400340934B4342B34003400342A
:1007300000341034113412340C34003404340034D6
:100740003034FF34FF342034223400340034003499
:10075000003430341034113412340C340C3430344E
:10076000003407341434803400340034003400344E
:100770000034003400341034113412340C34183482
:1007800000340034003400340034003400340034C9
:1007900000340034003400341034113412340C347A
:1007A0002434003400340034003400340034003485
:1007B000003400340034003400340934113412346D
:1007C000053430340034003400340034003408344C
:1007D000113412340434363400340034003400341C
:1007E0001034113420340C34003405340034073410
:1007F0000134773400340534C934C33480340034D0
:10080000003405341134203401340C34D234103423
:10081000113420340C3418340534003408340334D3
:1008200080340034303420340C34E83403340D3454
:100830001034113420340C3424340034A734C6343A
:10084000003443340234023400340034123480342F
:100850001534073411342034033430340F34103459
:10086000A03405341134203401343534E0341034EC
:10087000113420340C3438341134AB34AB340034FC
:100880001A343534553400342B340C34A434233426
:100890000E34113420340A344534033400344234E5
:1008A00001340034FF340634003418344034063444
:1008B000113420340234503484340A340634113470
:1008C00020340234543403340734053411342034D2
:1008D00001345734003409341134203405345B3486
:1008E0004034043405347834203410341134213445
:1008F0000C340034A23481342634AF343F34EE3427
:10090000C834C734DB34F2340234083410341134C0
:1009100021340C340C34073403341534FC340F34D4
:100920000034A23481342634AF343F34EE341034F2
:10093000113421340C341834C834C734DB34F23465
:1009400002340834073403341534FC340F340034D3
:100950000834113422340434003408347F34003431
:100960001D340B3411342334073400342C340E344A
:100970000B3404340C3473340334103411343034F5
:100980000C340034003400340034003400340034BB
:100990000034003400340034003400340C3411349A
:1009A0004034083400343A340D341734E434063417
:1009B000D4342034FE34003412348134003407340B
:1009C00003340034F034C534C534C534C534C534BB
:1009D000C534C534003400340034003400340034ED
:1009E0000034003400340034003400340034003467
:1009F0000034003400340034003400340034003457
:100A00000034003400340034003400340034003446
:100A10000034003400340034003400340034003436
:100A20000034003400340034003400340034003426
:100A30000034003400340034003400340034003416
:100A400000340034003483120313C301F31F292D33
:100A50002A2D372DF009F109F209F309F00A0319DB
:100A6000F10A0319F20A0319F30AC301C30AF71FB3
:100A70003A2D3B2D4A2DF409F509F609F709F40A38
:100A80000319F50A0319F60A0319F70A0130FF00E2
:100A90007F08C3060030C7000030C6000030C50024
:100AA0000030C40073087204710470040319592DD6
:100AB0005A2DA72DC201C20A6A2D0130F800031079
:100AC000F00DF10DF20DF30DF80B5F2D0130FF006D
:100AD0007F08C207F31F6D2D6E2D5D2D0130F800CC
:100AE0000310C40DC50DC60DC70DF80B702D73088E
:100AF0007702031D852D72087602031D852D71086E
:100B00007502031D852D70087402031C882D892D24
:100B1000982D7008F4027108031C710FF502720819
:100B2000031C720FF6027308031C730FF7024414C0
:100B300001300310F30CF20CF10CF00CFF3E031D1E
:100B4000992D0130C202031DA62DA72D6E2D43083D
:100B50000319AB2DAC2DB72DC409C509C609C709AA
:100B6000C40A0319C50A0319C60A0319C70A4708A4
:100B7000F3004608F2004508F1004408F0000800C0
:100B80001D2E4A08FF00490884008A1100218A119D
:100B9000CC000130C9070318CA0A0030CA07113057
:100BA0004C02031CD42DD52DD72D04302C2ECB0177
:100BB000F12D4A08FF00490884008A1100218A119A
:100BC000FF004B08323E84007F0883138000013011
:100BD000C9070318CA0A0030CA070130FF007F089E
:100BE000CB074C084B02031CF62DF72DD92D3230C4
:100BF000C200C301C4014C088A15C0278A11FF3AFC
:100C00000319032E042E062E02302C2E8A1565277A
:100C10008A11003A031D0D2E0E2E1D2E8312031372
:100C2000C601C70100308A11BB278A118312031342
:100C3000A61D1B2E1C2E1D2ED52D831203134A0814
:100C4000FF00490884008A1100218A11003A031D1F
:100C50002A2E2B2EC12D00300800831203134808C2
:100C6000CC004908CD004A08CE004B08CF00063022
:100C70000310CC0DCD0DCE0DCF0DFF3E031D382E34
:100C80004F08F3004E08F2004D08F1004C08F00048
:100C90004808D0004908D1004A08D2004B08D300C8
:100CA00006300310D00DD10DD20DD30DFF3E031D24
:100CB000512E0030D4001230D5007A30D6000030EA
:100CC000D7005008D4025108031C510F682E692E1A
:100CD000D5025208031C520F6E2E6F2ED6025308F7
:100CE000031C530F742E752ED7025708F7005608B1
:100CF000F6005508F5005408F4008A1123258A11DE
:100D00007108FA007008F9008316031318117908A6
:100D10009900181287170713181383120313181654
:100D200098178316031398168C1608008A156527E2
:100D30008A1183120313C9004908031DA02EA12E96
:100D4000DB2EC601C70100308A11BB278A1183122E
:100D50000313A61DAC2EAD2EB92E01308A15A32784
:100D60008A1102308A15E8278A1108308A15A327CC
:100D70008A1183120313A21EBE2EBF2EC12E203055
:100D8000DC2E221EC42EC52ED32E00308A15E82755
:100D90008A11A03083120313C50020088A159627F4
:100DA0008A111030DC2EA21DD62ED72EDB2E02305B
:100DB0008A15E8278A1100300800F800FB0110307E
:100DC000F9002730FA000C2F8A1542278A11443087
:100DD0008A156B278A118A1560278A11FB007B0A06
:100DE000031DF32EF42E032F78080319F82EF92E85
:100DF000FF2E7708F10078088A1147208A118A159A
:100E000046278A11122F8A1546278A110130F902C6
:100E10000030031CFA03FA0279087A04031D112F2B
:100E2000122FE42E79087A04031D172F182F192F7B
:100E3000182F7B0A031D1D2F1E2F222F8312031331
:100E4000B001B00A7B0808008A1122208A113D2FC8
:100E5000FF3083120313CF007F30D0000130CF0268
:100E60000030031CD003D0024F0A031D3B2F500A51
:100E7000031D3B2F3C2F2E2F242FDC308400843089
:100E800083120313FF008A1100218A11CD008A11F9
:100E900000218A11CE004D08C9004E08CA008A11EF
:100EA000C0258A11003A031D562F572F282F831271
:100EB0000313C601C70100308A11BB278A1108003D
:100EC0008A11E4208A118A1124278A1183120313BC
:100ED000DA01DA0A4030C90001308A116A208A1129
:100EE0008A1196268A11103A031D772F782F702FBA
:100EF00083120313B1013108A03E8400831300085C
:100F00008A157F278A110130FF007F08831203139F
:100F1000B10740303102031C8E2F8F2F7B2F702F93
:100F20008A110428FC008312031342080319992F25
:100F30009A2FA52F9E2F8A1571278A1183120313CA
:100F400030080319A42FA52F9B2F8A1542278A1139
:100F50007C088A156B278A11831203134408F10059
:100F600043088A1147208A118A1546278A1183125D
:100F70000313B001080083120313C8002030B2002D
:100F80004808B3004608B4004708B5003230C20034
:100F90000830C3003230C40004308A15C0278A11DB
:100FA000831203133208A0003308A1003408A20002
:100FB0003508A3003608A4003708A5003808A600A5
:100FC0003908A70008008A154E278A11FF30F00063
:100FD0000130F0027008031DEE2FEF2FE82F8A1565
:100FE00052278A11FF30F0000130F0027008031D13
:100FF000FA2FFB2FF42F8A154A278A110800FF3F8A
:101E7000FF3FFF3FFF3FFF3F0B178B170800DC348E
:101E80008434FF3483120313851208008312031372
:101E90008516080083120313B00108008312031390
:101EA0008614080083120313861008008316031398
:101EB0008610061408007530831603138F0008007F
:101EC000FF308A15B1278A150800003083120313EA
:101ED000061801300800F10071088A158A278A1552
:101EE0000800F70100308A11DD268A150800640019
:101EF0008001840A0406031900340406782FF000D8
:101F0000831203130C1E852F862F802F0C1270084E
:101F100099000800F00070088312031393008316E1
:101F20000313141C942F952F8F2F0800FD0083128C
:101F30000313C2017D08C3004508C40077308A112D
:101F400092278A15080083120313C2003430B200AE
:101F50004208B3003230FC0002308A11AE208A15EC
:101F60000800F00070088312031393008316031314
:101F7000141CBB2FBC2FB62F8312031313080800A9
:101F800083120313C5004208FC0045088A11AE20E5
:101F90008A15831203134408F70043088A11DD26CB
:101FA0008A150800831603138711871207168512F6
:101FB000831203131408F039023894009416831620
:101FC00003139413141783120313141285160800B5
:101FD00083120313C6001530B2004608B300323036
:101FE000C2000230C3003230C40002308A15C0275C
:101FF0008A15831203133208A0003308A1000800D9
:08400000FF3FFF3FFF3FFF3FC0
:04400E00F52FFF3E4D
:00000001FF
