:100000008A110B28E6348434FE00030EF1000A083E
:10001000F2008A15EA2D8A110D288A11FF208A1113
:10002000E0008A1102208A11F8008A1103208A1147
:10003000F90083172030840060308A11F7208A117C
:100040008313A0308400E0308A11F7208A11203019
:10005000840042308A11F7208A1183018A11C52851
:1000600083120313C700CA011030C8002730C9002B
:1000700067288A15DE248A1144308A1507258A11DB
:100080008A15FC248A1183120313CA004A0A031D2D
:100090004A284B285C28470803194F28502858281D
:1000A0007708F5000030F60047088A152E278A11D8
:1000B0008A15E2248A116D288A15E2248A110130FA
:1000C00083120313C8020030031CC903C902480885
:1000D0004904031D6C286D2839288312031348082E
:1000E0004904031D74287528762875284A0A031DBB
:1000F0007A287B287D28B001B00A4A0808008312BC
:100100000313C201C30174087504031988288928E0
:10011000C028C401C40A972801300310F40DF50D5E
:10012000FF3E031D8D280130FF007F08C407F51F27
:100130009A289B288C2801300310C20DC30DFF3E66
:10014000031D9C2875087702031DA82874087602F1
:10015000031CAB28AC28B3287408F6027508031CEE
:10016000F703F702421401300310F50CF40CFF3EC4
:10017000031DB4280130C402031DBF28C0289B28DA
:100180004308F5004208F40008008A15B6258A11D4
:100190008A15C4278A1183120313E0012D30CA0087
:1001A0008530CB000030CC00CD00A0308A11412535
:1001B0008A11403083120313D40000308A1541267F
:1001C0008A118312031331080319E728E828F1285C
:1001D000B101A030D4004030D50060088A15032753
:1001E0008A118A1196278A11E1288A110B28640046
:1001F0008001840A0406031900340406F828FF3439
:10020000FF1B0A2983137F1883170008840A031928
:10021000FF0A08007F087F398A000408840A03194E
:10022000FF0A8200013400340A340034643400349C
:10023000E83403341034273408340434213471345E
:100240004B3400340034DC34953408340534A6349F
:1002500022342134F03441345B3426340834E2341F
:100260002F341C34BB340A34A83494342834083472
:10027000053487346734E23458341A3407345B3435
:100280000834E134D0347234D8348A34B8345B342E
:100290007D34083405341134EC349E34283423344E
:1002A0001B346D340834E2344F348A34B234A93408
:1002B00029341434133408340534D1342E347134D1
:1002C0006A3451344C342C340834E53480342734C7
:1002D0004234A4346934B0347F3408340534AA3449
:1002E00081342A34BD344534E834A8340834EA343F
:1002F000E434F0342434C9349F34CC343C340834EE
:1003000005340834F5340534043427346234983421
:100310000834EA346B3462348434A134F9344A3416
:10032000E23408340534E934773405344F34843406
:10033000EE3435340834E2344334C3348D34FB3482
:10034000AD345434253408340534143406345E3462
:10035000393436342F3445340834EA340C341C3400
:100360007434D0341134FC34323408340534DA3483
:100370003834BA340E343C34E7348B340834EA343D
:10038000B0340934E634FF349434BB34A93408342F
:100390000534D73411342934FE34DC347134D53487
:1003A0000834EA347F348334A734603490346234C0
:1003B00018340834053484347F346A34D1349134A9
:1003C000C63452340834EA342A34D8347B348E3478
:1003D0004A349F34913408340534BD34AA349D34F2
:1003E00016341834063415340834E2345534AD3438
:1003F0002D340A3414341F345D3408340534D334B6
:10040000E0347C343934CF340134F0340834EF3400
:100410003A34913472346A340334BB349634083439
:10042000E73483346D34A4349234FC341334A73469
:100430000834EF34F834FD34CF34623407346F3489
:100440001E340834E7344C34EA344A3475344F34BB
:10045000D634CF340834E234F6341134E43426345C
:100460000D344D34C63408340534FB34BF34E8341D
:1004700007348934C33451340834EF348234273498
:1004800004343F349634A83458340834E7344134C3
:1004900029343C3475342A3403341C340834EF34A2
:1004A000AF34593498343634AA340F34063408340F
:1004B000E634F634933441342D34EC340E3499342C
:1004C00008340534293419349034E534AA343634E8
:1004D00040340834E734FB34683410347D347734E6
:1004E0005D34C0340834E734CB34B434DD34CE3436
:1004F00090345434BE340834E73472348A34D634F9
:100500000234F434DD34CC340834E7346A34213432
:100510000B3402348634EC3415340834E7347B343D
:100520007C343D346B3481340334D0340834EF34BC
:100530007D346134363494347C34A034DF34083470
:10054000EF34CC3485343B34DA34E0345C341C345E
:100550000834E734E3347534BB34393422344B3453
:10056000A8340834EF34F934CE34E0345E34EB345C
:100570001D34CB340834E734BD34E2347034D53420
:10058000AB344E343F340834E734B7348D34203440
:1005900068346B34093452340834EF34A1341B34DA
:1005A0009034CD349834003463340834EF34543408
:1005B00067345D349C341134FC3445340834E734FA
:1005C000D4349B34C8349734BE348A340734083466
:1005D000EF3452348D34903463347334D5342A3448
:1005E0000834EF340334BC346E341C347634BE34F7
:1005F0004A340834E734C234ED346734BA345E34F4
:10060000663421340834EF34E7343F348734BE3461
:10061000E0347A346D340834E734C93470349334B8
:100620001D346434F5346C340834EF34F534283434
:1006300008343434B334B6342C340834EF343A3418
:100640000A34EC340F34DB345634CA340834EF3413
:100650003934A0346E34ED347934D0342434083451
:10066000E7346C340B34AF34A9344E344034B534F1
:100670000834E934B934AF34BF3425345034D1347C
:100680003734083405349E34DB34DE343F3494345C
:10069000E9346B340834EC34C5340534AA345734A7
:1006A000DC348A345E34083405347034DA3484340B
:1006B0008434DD34CA349034073402348134003455
:1006C0000134C934C3348034083413340034003462
:1006D0000034003400340034003406341134003463
:1006E0000134003400340034053411340034013452
:1006F000033420340634113401340234003401341C
:1007000038340834113402340434003400340034F2
:10071000003400340D3411341034093400340834FA
:10072000143400340F3431340034003400340034D5
:100730000A3411341134063400340934B4342B34FF
:100740000034003400341034113412340C340034CA
:10075000043400343034FF34FF3420342234003485
:1007600000340034003430341034113412340C347A
:100770000C34303400340734143480340034003402
:100780000034003400340034003410341134123496
:100790000C34183400340034003400340034003495
:1007A0000034003400340034003400341034113488
:1007B00012340C3424340034003400340034003457
:1007C0000034003400340034003400340034093480
:1007D0001134123405343034003400340034003421
:1007E0000034083411341234043436340034003404
:1007F000003400341034113420340C340034053407
:10080000003407340134773400340534C934C33438
:1008100080340034003405341134203401340C3475
:10082000D2341034113420340C34183405340034EC
:100830000834033480340034303420340C34E83449
:1008400003340D341034113420340C342434003487
:10085000A734C63400344334023402340034003444
:1008600012348034153407341134203403343034D6
:100870000F341034A03405341134203401343534AD
:10088000E0341034113420340C3438341134AB34A7
:10089000AB3400341A343534553400342B340C3432
:1008A000A43423340E34113420340A344534033450
:1008B0000034423401340034FF3406340034183438
:1008C00040340634113420340234503484340A3431
:1008D00006341134203402345434033407340534DC
:1008E00011342034013457340034093411342034A5
:1008F00005345B3440340434053478342034103407
:10090000113421340C340034A23481342634AF3411
:100910003F34EE34C834C734DB34F23402340834A4
:100920001034113421340C340C34073403341534AE
:10093000FC340F340034A23481342634AF343F34D5
:10094000EE341034113421340C341834C834C73424
:10095000DB34F23402340834073403341534FC3405
:100960000F34003408341134223404340034083491
:100970007F3400341D340B341134233407340034F5
:100980002C340E340B3404340C34733403341034EC
:10099000113430340C34003400340034003400346A
:1009A00000340034003400340034003400340034A7
:1009B0000C3411344034083400343A340D341734D4
:1009C000E4340634D4342034FE3400341C3481340E
:1009D0000034073403340034F034C534C534C5342E
:1009E000C534C534C534C534003400340034003453
:1009F0000034003400340034003400340034003457
:100A00000034003400340034003400340034003446
:100A10000034003400340034003400340034003436
:100A20000034003400340034003400340034003426
:100A30000034003400340034003400340034003416
:100A40000034003400340034003400340034003406
:100A500000340034003400340034723466347434AA
:100A600065347334743440346334683461346E34C0
:100A70006E3465346C343A34253464340D340A34BD
:100A8000003483120313D7004C30D200082E2530D7
:100A9000580603194C2D4D2D572D57088400580822
:100AA000831380000130FF007F08D707082ED30191
:100AB0004B08CF004A08CE00CA0A0319CB0A4F08D8
:100AC000FF004E0884008A1100218A11D800D0004E
:100AD000D1015108003A03196E2D082E5008003A32
:100AE00003191C2E643A0319792D0D3A0319792D37
:100AF000082E5208840083130008D500840A0008D9
:100B0000D6000230FF007F08D207D61F882D892D1E
:100B1000922D0330FF007F08D304D509D609D50AEA
:100B20000319D60AD801D80A5808CE004E07123E3B
:100B3000840081300318013EFF008A1100218A11D0
:100B4000CF008A1100218A11D00050085602031DDF
:100B5000AB2D4F0855020318AE2DAF2DB02DBA2D79
:100B60000130FF007F08D80705305806031DB92D56
:100B7000BA2D942D530803390319BF2DC02DC92D4B
:100B8000570884002D30831380000130FF007F0858
:100B9000D7075808D400FF2D0A30C5000030C60022
:100BA0005408CE004E07123E840081300318013EE7
:100BB000FF008A1100218A11F4008A1100218A1194
:100BC000F5005608F7005508F6008A117F208A11B3
:100BD000750883120313C8007408C7008A15882794
:100BE0008A11831203134508303ED8005708840049
:100BF0005808831380000130FF007F08D707FF30BB
:100C0000FF007F08D407540A031D072E082ECC2DA1
:100C10004B08CF004A08CE00CA0A0319CB0A4F0876
:100C2000FF004E0884008A1100218A11D80058085C
:100C3000031D1B2E1C2E472D570884008313800193
:100C4000080083120313CB01C51F272E282E352E33
:100C5000C209C309C409C509C20A0319C30A031991
:100C6000C40A0319C50ACB01CB0AC91F382E392E75
:100C7000482EC609C709C809C909C60A0319C70AFF
:100C80000319C80A0319C90A0130FF007F08CB06FF
:100C90000030CF000030CE000030CD000030CC005E
:100CA00045084404430442040319572E582EA52E28
:100CB000CA01CA0A682E0130F4000310C20DC30D28
:100CC000C40DC50DF40B5D2E0130FF007F08CA076F
:100CD000C51F6B2E6C2E5B2E0130F4000310CC0D63
:100CE000CD0DCE0DCF0DF40B6E2E45084902031D20
:100CF000832E44084802031D832E43084702031D28
:100D0000832E42084602031C862E872E962E42080A
:100D1000C6024308031C430FC7024408031C440FC8
:100D2000C8024508031C450FC9024C1401300310CA
:100D3000C50CC40CC30CC20CFF3E031D972E013022
:100D4000CA02031DA42EA52E6C2E4B080319A92E32
:100D5000AA2EB52ECC09CD09CE09CF09CC0A03198C
:100D6000CD0A0319CE0A0319CF0A4F08C5004E0851
:100D7000C4004D08C3004C08C20008001B2F5508D2
:100D8000FF00540884008A1100218A11D700013025
:100D9000D4070318D50A0030D50711305702031CB9
:100DA000D22ED32ED52E04302A2FD601EF2E550861
:100DB000FF00540884008A1100218A11FF005608A0
:100DC000323E84007F08831380000130D40703186B
:100DD000D50A0030D5070130FF007F08D607570835
:100DE0005602031CF42EF52ED72E3230CD00CE0144
:100DF000CF0157088A1560258A11FF3A0319012F80
:100E0000022F042F02302A2F8A1501258A11003A59
:100E1000031D0B2F0C2F1B2F83120313D101D201A3
:100E200000308A15B0268A1183120313A61D192FCC
:100E30001A2F1B2FD32E831203135508FF005408BB
:100E400084008A1100218A11003A031D282F292FBE
:100E5000BF2E00300800831203135008D40051083D
:100E6000D5005208D6005308D70006300310D40D21
:100E7000D50DD60DD70DFF3E031D362F5708C500E3
:100E80005608C4005508C3005408C2005008D800D2
:100E90005108D9005208DA005308DB00063003106D
:100EA000D80DD90DDA0DDB0DFF3E031D4F2F00309D
:100EB000DC001230DD007A30DE000030DF00580840
:100EC000DC025908031C590F662F672FDD025A08F0
:100ED000031C5A0F6C2F6D2FDE025B08031C5B0F87
:100EE000722F732FDF025F08C9005E08C8005D081B
:100EF000C7005C08C6008A1121268A1183120313D9
:100F00004308F6004208F50083160313181175080C
:100F10009900181287170713181383120313181652
:100F200098178316031398168C1608008A15012546
:100F30008A1183120313D4005408031DA02FA12F7C
:100F4000F22FD101D20100308A15B0268A11831206
:100F50000313A61DAC2FAD2FB92F01308A154325E1
:100F60008A1102308A159E258A1108308A15432578
:100F70008A1183120313A21EBE2FBF2FC12F203050
:100F8000F32F221EC42FC52FEA2F00308A159E256D
:100F90008A11203083120313CF0020088A152925D7
:100FA0008A1183120313D5015508203E840083174C
:100FB00000088A151E258A110130FF007F08831260
:100FC0000313D50740305502031CE72FE82FD42F19
:100FD0001030F32FA21DED2FEE2FF22F02308A15C5
:100FE0009E258A1100300800F40074088312031350
:100FF000930083160313141CFE2FFF2FF92F0800F4
:1019B000FF3FFF3FFF3F0B178B17080083120313F6
:1019C000851208008312031385160800831203137F
:1019D000B001080083120313861408008312031356
:1019E000861008008316031386100614080075304D
:1019F000831603138F000800FF308A1551258A15BE
:101A00000800003083120313061801300800F500A7
:101A100075088A11F4278A150800F70100308A1129
:101A200030208A150800F000831203130C1E192DB4
:101A30001A2D142D0C12700899000800F40083125E
:101A400003130C1E242D252D1F2D0C127408990034
:101A5000080083120313D000CB015008CC004F08BC
:101A6000CD0077308A155B278A150800831203138F
:101A7000D000CB015008CC004F08CD0066308A154D
:101A8000D8268A15080083120313CD003430B20023
:101A90004D08B3003230CB0002308A1521268A155A
:101AA0000800F400740883120313930083160313D1
:101AB000141C5B2D5C2D562D831203131308080094
:101AC00083120313D0004D08CB0050088A1521263D
:101AD0008A15831203134F08F7004E088A1130202D
:101AE0008A150800831603138711871207168512BB
:101AF000831203131408F0390238940094168316E5
:101B00000313941314178312031314128516080079
:101B100083120313D0003130B2005008B3004D08D7
:101B2000B4004F08B5004E08B600B701B801323016
:101B3000CB0007308A1521268A150800831203136B
:101B4000D1001530B2005108B3003230CD00023060
:101B5000CE003230CF0002308A1560258A158312FC
:101B600003133208A0003308A10008008A15F724E7
:101B70008A15003083120313D3000030D2002530C1
:101B8000D1008030D0008A112B278A158A15722542
:101B90008A158A15F2248A158A15DB248A1508000D
:101BA00083120313D3003230B2005308B3004D0840
:101BB000B4004F08B5004E08B6005008B7005108F1
:101BC000B8005208B9003230CB0008308A152126FF
:101BD0008A150800831203138C1EEF2DF02DFE2DA5
:101BE0001A08F30020307306031DF72DF82DFA2D87
:101BF0000130B10073088A1513258A1572088A000E
:101C0000710E8300FE0E7E0E09008A15EA248A15E5
:101C1000FF30F4000130F4027408031D102E112E61
:101C20000A2E8A15EE248A15FF30F4000130F402E2
:101C30007408031D1C2E1D2E162E8A15E6248A15E7
:101C4000080083120313CC00282E8A150D258A154F
:101C500083120313300803192E2E2F2E252E8A15DA
:101C6000DE248A15831203134B08F5004C088A15ED
:101C700063268A158A15E2248A1583120313B0019C
:101C8000080083120313D700D101D20100308A1556
:101C9000B0268A1502308A159E258A1583120313F1
:101CA000CD015408D500D6015508CE005608CF0006
:101CB0000830D0000830D1000830D20057088A150B
:101CC000D0258A15080083120313C200C301C40182
:101CD0007B2E43087507F6007608840083130008FE
:101CE0008A11F4278A15013083120313C3070318DE
:101CF000C40A0030C4074208F600F701770844021E
:101D0000031D842E76084302031C872E882E692E1D
:101D1000080083120313C201C3018A1505268A1520
:101D2000972E0130C2070318C30A0030C307EB30F7
:101D30008400843083120313FF008A1100218A1566
:101D4000F5008A1100218A15F60076084302031D6A
:101D5000AB2E75084202031CAE2EAF2E912E08004A
:101D600083120313D3002030B2005308B30051088C
:101D7000B4005208B5003230CD000830CE00323009
:101D8000CF0004308A1560258A15831203133208A8
:101D9000A0003308A1003408A2003508A3003608CB
:101DA000A4003708A5003808A6003908A7000800D5
:101DB00083120313CE004B080319DF2EE02EEB2E07
:101DC000E42E8A150D258A15831203133008031992
:101DD000EA2EEB2EE12E8A15DE248A1583120313D8
:101DE0004E088A1507258A15831203134D08F5003E
:101DF0004C088A1563268A158A15E2248A158312EF
:101E00000313B001080083120313D80003308A15AE
:101E100043258A1583120313D101D20100308A159C
:101E2000B0268A1501308A159E258A158312031360
:101E30005408CF0055088A1536258A15803083123C
:101E40000313CD005508D600D7015608CE00570819
:101E5000CF0058088A1588258A15080083120313B5
:101E6000C400C501C6014D2F45087507C20076089C
:101E70000318013EC300420884008317431C8313E8
:101E8000FF308A1551258A15800001308312031313
:101E9000C5070318C60A0030C6074408C200C301BC
:101EA00043084602031D562F42084502031C592FC2
:101EB0005A2F342F080083120313CE004B08031946
:101EC000622F632F6E2F672F8A150D258A158312B7
:101ED0000313300803196D2F6E2F642F8A15DE242B
:101EE0008A15831203134E088A1507258A15831253
:101EF00003134D08F5000130F6004C088A152E2713
:101F00008A158A15E2248A1583120313B00108008A
:101F1000831203134508460403198F2F902FBF2FF8
:101F2000C901C90A9E2F01300310C50DC60DFF3E21
:101F3000031D942F0130FF007F08C907C61FA12F82
:101F4000A22F932F46084802031DA82F45084702D9
:101F5000031CAB2FAC2FB22F4508C7024608031C49
:101F6000C803C80201300310C60CC50CFF3E031D98
:101F7000B32F0130C902031DBE2FBF2FA22F480867
:101F8000C6004708C50008008A1589268A15DD2F76
:101F9000FF3083120313DA007F30DB000130DA02F6
:101FA0000030031CDB03DB025A0A031DDB2F5B0A34
:101FB000031DDB2FDC2FCE2FC42FE63084008430AE
:101FC00083120313FF008A1100218A15D8008A1199
:101FD00000218A15D9005808D4005908D5008A1163
:101FE000BE268A15003A031DF62FF72FC82F83123D
:101FF0000313D101D20100308A15B0268A150800DA
:08400000FF3FFF3FFF3FFF3FC0
:04400E00F52FFF3E4D
:00000001FF
