:100000008A110428FF3FFF3F8A1106288A150B2614
:100010008A11DB008A150C268A11DC008A150D2650
:100020008A11DD0083172030840060308A15432652
:100030008A118313A0308400E0308A1543268A1188
:100040002030840042308A1543268A1183018A15A4
:10005000CE2FF401F50170087104031930283128FE
:100060006828F601F60A3F2801300310F00DF10D63
:10007000FF3E031D35280130FF007F08F607F11F02
:1000800042284328342801300310F40DF50DFF3EBB
:10009000031D442871087302031D50287008720262
:1000A000031C532854285B287008F2027108031CB3
:1000B000F303F302741401300310F10CF00CFF3E53
:1000C000031D5C280130F602031D672868284328B9
:1000D0007508F1007408F00008008A11D9278A1108
:1000E0008628FF3083120313CF007F30D000013009
:1000F000CF020030031CD003D0024F0A031D842816
:10010000500A031D8428852877286D28E63084004E
:10011000843083120313FF008A1100218A11CD005D
:100120008A1100218A11CE004D08C9004E08CA006C
:100130008A11BC268A11003A031D9F28A028712825
:1001400083120313C601C70100308A1552278A1192
:100150000800770878040319AE28AF28DE28FB01D1
:10016000FB0ABD2801300310F70DF80DFF3E031DFB
:10017000B3280130FF007F08FB07F81FC028C12803
:10018000B22878087A02031DC72877087902031C71
:10019000CA28CB28D1287708F9027808031CFA036B
:1001A000FA0201300310F80CF70CFF3E031DD228B1
:1001B0000130FB02031DDD28DE28C1287A08F80083
:1001C0007908F70008008A151A268A11FF30F00016
:1001D0000130F0027008031DEE28EF28E8288A1588
:1001E0001E268A11FF30F0000130F0027008031D56
:1001F000FA28FB28F4288A1516268A110800FF3FE2
:10020000FF1B0A2983137F1883170008840A031928
:10021000FF0A08007F087F398A000408840A03194E
:10022000FF0A8200013400340A340034643400349C
:10023000E83403341034273408340434213471345E
:100240004B3400340034DC34953408340534A6349F
:1002500022342134F03441345B3426340834E2341F
:100260002F341C34BB340A34A83494342834083472
:10027000053487346734E23458341A3407345B3435
:100280000834E134D0347234D8348A34B8345B342E
:100290007D34083405341134EC349E34283423344E
:1002A0001B346D340834E2344F348A34B234A93408
:1002B00029341434133408340534D1342E347134D1
:1002C0006A3451344C342C340834E53480342734C7
:1002D0004234A4346934B0347F3408340534AA3449
:1002E00081342A34BD344534E834A8340834EA343F
:1002F000E434F0342434C9349F34CC343C340834EE
:1003000005340834F5340534043427346234983421
:100310000834EA346B3462348434A134F9344A3416
:10032000E23408340534E934773405344F34843406
:10033000EE3435340834E2344334C3348D34FB3482
:10034000AD345434253408340534143406345E3462
:10035000393436342F3445340834EA340C341C3400
:100360007434D0341134FC34323408340534DA3483
:100370003834BA340E343C34E7348B340834EA343D
:10038000B0340934E634FF349434BB34A93408342F
:100390000534D73411342934FE34DC347134D53487
:1003A0000834EA347F348334A734603490346234C0
:1003B00018340834053484347F346A34D1349134A9
:1003C000C63452340834EA342A34D8347B348E3478
:1003D0004A349F34913408340534BD34AA349D34F2
:1003E00016341834063415340834E2345534AD3438
:1003F0002D340A3414341F345D3408340534D334B6
:10040000E0347C343934CF340134F0340834EF3400
:100410003A34913472346A340334BB349634083439
:10042000E73483346D34A4349234FC341334A73469
:100430000834EF34F834FD34CF34623407346F3489
:100440001E340834E7344C34EA344A3475344F34BB
:10045000D634CF340834E234F6341134E43426345C
:100460000D344D34C63408340534FB34BF34E8341D
:1004700007348934C33451340834EF348234273498
:1004800004343F349634A83458340834E7344134C3
:1004900029343C3475342A3403341C340834EF34A2
:1004A000AF34593498343634AA340F34063408340F
:1004B000E634F634933441342D34EC340E3499342C
:1004C00008340534293419349034E534AA343634E8
:1004D00040340834E734FB34683410347D347734E6
:1004E0005D34C0340834E734CB34B434DD34CE3436
:1004F00090345434BE340834E73472348A34D634F9
:100500000234F434DD34CC340834E7346A34213432
:100510000B3402348634EC3415340834E7347B343D
:100520007C343D346B3481340334D0340834EF34BC
:100530007D346134363494347C34A034DF34083470
:10054000EF34CC3485343B34DA34E0345C341C345E
:100550000834E734E3347534BB34393422344B3453
:10056000A8340834EF34F934CE34E0345E34EB345C
:100570001D34CB340834E734BD34E2347034D53420
:10058000AB344E343F340834E734B7348D34203440
:1005900068346B34093452340834EF34A1341B34DA
:1005A0009034CD349834003463340834EF34543408
:1005B00067345D349C341134FC3445340834E734FA
:1005C000D4349B34C8349734BE348A340734083466
:1005D000EF3452348D34903463347334D5342A3448
:1005E0000834EF340334BC346E341C347634BE34F7
:1005F0004A340834E734C234ED346734BA345E34F4
:10060000663421340834EF34E7343F348734BE3461
:10061000E0347A346D340834E734C93470349334B8
:100620001D346434F5346C340834EF34F534283434
:1006300008343434B334B6342C340834EF343A3418
:100640000A34EC340F34DB345634CA340834EF3413
:100650003934A0346E34ED347934D0342434083451
:10066000E7346C340B34AF34A9344E344034B534F1
:100670000834E934B934AF34BF3425345034D1347C
:100680003734083405349E34DB34DE343F3494345C
:10069000E9346B340834EC34C5340534AA345734A7
:1006A000DC348A345E34083405347034DA3484340B
:1006B0008434DD34CA349034073402348134003455
:1006C0000134C934C3348034083413340034003462
:1006D0000034003400340034003406341134003463
:1006E0000134003400340034053411340034013452
:1006F000033420340634113401340234003401341C
:1007000038340834113402340434003400340034F2
:10071000003400340D3411341034093400340834FA
:10072000143400340F3431340034003400340034D5
:100730000A3411341134063400340934B4342B34FF
:100740000034003400341034113412340C340034CA
:10075000043400343034FF34FF3420342234003485
:1007600000340034003430341034113412340C347A
:100770000C34303400340734143480340034003402
:100780000034003400340034003410341134123496
:100790000C34183400340034003400340034003495
:1007A0000034003400340034003400341034113488
:1007B00012340C3424340034003400340034003457
:1007C0000034003400340034003400340034093480
:1007D0001134123405343034003400340034003421
:1007E0000034083411341234043436340034003404
:1007F000003400341034113420340C340034053407
:10080000003407340134773400340534C934C33438
:1008100080340034003405341134203401340C3475
:10082000D2341034113420340C34183405340034EC
:100830000834033480340034303420340C34E83449
:1008400003340D341034113420340C342434003487
:10085000A734C63400344334023402340034003444
:1008600012348034153407341134203403343034D6
:100870000F341034A03405341134203401343534AD
:10088000E0341034113420340C3438341134AB34A7
:10089000AB3400341A343534553400342B340C3432
:1008A000A43423340E34113420340A344534033450
:1008B0000034423401340034FF3406340034183438
:1008C00040340634113420340234503484340A3431
:1008D00006341134203402345434033407340534DC
:1008E00011342034013457340034093411342034A5
:1008F00005345B3440340434053478342034103407
:10090000113421340C340034A23481342634AF3411
:100910003F34EE34C834C734DB34F23402340834A4
:100920001034113421340C340C34073403341534AE
:10093000FC340F340034A23481342634AF343F34D5
:10094000EE341034113421340C341834C834C73424
:10095000DB34F23402340834073403341534FC3405
:100960000F34003408341134223404340034083491
:100970007F3400341D340B341134233407340034F5
:100980002C340E340B3404340C34733403341034EC
:10099000113430340C34003400340034003400346A
:1009A00000340034003400340034003400340034A7
:1009B0000C3411344034083400343A340D341734D4
:1009C000E4340634D4342034FE3400341C3481340E
:1009D0000034073403340034F034C534C534C5342E
:1009E000C534C534C534C534003400340034003453
:1009F0000034003400340034003400340034003457
:100A00000034003400340034003400340034003446
:100A10000034003400340034003400340034003436
:100A20000034003400340034003400340034003426
:100A30000034003400340034003400340034003416
:100A40000034003400340034003400340034003406
:100A500000340034003400340034723466347434AA
:100A600065347334743440346334683461346E34C0
:100A70006E3465346C343A34253464340D340A34BD
:100A8000003483120313CF004430CA00062E2530F1
:100A9000500603194C2D4D2D572D4F08840050083A
:100AA000831380000130FF007F08CF07062ECB01A3
:100AB0004308C7004208C600C20A0319C30A470810
:100AC000FF00460884008A1100218A11D000C80066
:100AD000C9014908003A03196E2D062E4808003A4C
:100AE00003191A2E643A0319792D0D3A0319792D39
:100AF000062E4A08840083130008CD00840A0008EB
:100B0000CE000230FF007F08CA07CE1F882D892D36
:100B1000922D0330FF007F08CB04CD09CE09CD0A0A
:100B20000319CE0AD001D00A5008C6004607123E6B
:100B3000840081300318013EFF008A1100218A11D0
:100B4000C7008A1100218A11C80048084E02031DFF
:100B5000AB2D47084D020318AE2DAF2DB02DBA2D89
:100B60000130FF007F08D00705305006031DB92D66
:100B7000BA2D942D4B0803390319BF2DC02DC92D53
:100B80004F0884002D30831380000130FF007F0860
:100B9000CF075008CC00FD2D0A30F7000030F800D8
:100BA0004C08C6004607123E840081300318013EFF
:100BB000FF008A1100218A11F0008A1100218A1198
:100BC000F1004E08F3004D08F2008A1129208A1125
:100BD0007108FA007008F9008A11A9208A117708B3
:100BE000303E83120313D0004F0884005008831353
:100BF00080000130FF007F08CF07FF30FF007F0833
:100C0000CC074C0A031D052E062ECC2D4308C70029
:100C10004208C600C20A0319C30A4708FF00460873
:100C200084008A1100218A11D0005008031D192E5A
:100C30001A2E472D4F088400831380010800831269
:100C40000313C301F31F252E262E332EF009F109BD
:100C5000F209F309F00A0319F10A0319F20A031958
:100C6000F30AC301C30AF71F362E372E462EF409A6
:100C7000F509F609F709F40A0319F50A0319F60A42
:100C80000319F70A0130FF007F08C3060030C700D0
:100C90000030C6000030C5000030C4007308720484
:100CA000710470040319552E562EA32EC201C20AD8
:100CB000662E0130F8000310F00DF10DF20DF30D6A
:100CC000F80B5B2E0130FF007F08C207F31F692E6F
:100CD0006A2E592E0130F8000310C40DC50DC60D43
:100CE000C70DF80B6C2E73087702031D812E720856
:100CF0007602031D812E71087502031D812E700876
:100D00007402031C842E852E942E7008F402710840
:100D1000031C710FF5027208031C720FF6027308B0
:100D2000031C730FF702441401300310F30CF20C90
:100D3000F10CF00CFF3E031D952E0130C202031D85
:100D4000A22EA32E6A2E43080319A72EA82EB32E77
:100D5000C409C509C609C709C40A0319C50A031984
:100D6000C60A0319C70A4708F3004608F2004508F7
:100D7000F1004408F0000800192F4A08FF00490854
:100D800084008A1100218A11CC000130C9070318A0
:100D9000CA0A0030CA0711304C02031CD02ED12ED3
:100DA000D32E0430282FCB01ED2E4A08FF0049082E
:100DB00084008A1100218A11FF004B08323E840012
:100DC0007F08831380000130C9070318CA0A003066
:100DD000CA070130FF007F08CB074C084B02031CF9
:100DE000F22EF32ED52E3230C200C301C4014C08BE
:100DF0008A1581268A11FF3A0319FF2E002F022F30
:100E00000230282F8A1531268A11003A031D092F36
:100E10000A2F192F83120313C601C70100308A1548
:100E200052278A1183120313A61D172F182F192F6B
:100E3000D12E831203134A08FF00490884008A1147
:100E400000218A11003A031D262F272FBD2E0030C6
:100E50000800831203134808CC004908CD004A0853
:100E6000CE004B08CF0006300310CC0DCD0DCE0DBB
:100E7000CF0DFF3E031D342F4F08F3004E08F20044
:100E80004D08F1004C08F0004808D0004908D10096
:100E90004A08D2004B08D30006300310D00DD10D04
:100EA000D20DD30DFF3E031D4D2F0030D400123064
:100EB000D5007A30D6000030D7005008D40251084F
:100EC000031C510F642F652FD5025208031C520FCB
:100ED0006A2F6B2FD6025308031C530F702F712FEC
:100EE000D7025708F7005608F6005508F5005408D1
:100EF000F4008A111F268A117108FA007008F9009F
:100F0000831603131811790899001812871707130D
:100F100018138312031318169817831603139816C1
:100F20008C160800F800FB011030F9002730FA0099
:100F3000C12F8A150E268A1144308A1537268A1148
:100F40008A152C268A11FB007B0A031DA82FA92FC6
:100F5000B82F78080319AD2FAE2FB42F7708F10002
:100F600078088A152F278A118A1512268A11C72F09
:100F70008A1512268A110130F9020030031CFA0387
:100F8000FA0279087A04031DC62FC72F992F790812
:100F90007A04031DCC2FCD2FCE2FCD2F7B0A031D1E
:100FA000D22FD32FD72F83120313B001B00A7B089F
:100FB0000800F301F4018A11E3208A11E52F0130C2
:100FC000F3070318F40A0030F407EB308400843090
:100FD00083120313FF008A1100218A11F1008A1184
:100FE00000218A11F20072087402031DF92F7108A2
:100FF0007302031CFC2FFD2FDF2F0800FF3FFF3F74
:101C10000B178B170800E6348434FF348312031348
:101C2000851208008312031385160800831203131C
:101C3000B0010800831203138614080083120313F3
:101C400086100800831603138610061408007530EA
:101C5000831603138F000800FF308A1572268A1539
:101C60000800003083120313061801300800F10049
:101C700071088A154B268A150800F70100308A1171
:101C800092278A15080064008001840A040603195B
:101C900000340406442EF0007008831203139300EE
:101CA00083160313141C552E562E502E0800FD00CB
:101CB00083120313C2017D08C3004508C4006630C7
:101CC0008A157A278A15080083120313C20034305C
:101CD000B2004208B3003230FC0002308A15F1260F
:101CE0008A150800F000700883120313930083160E
:101CF0000313141C7C2E7D2E772E831203131308DE
:101D0000080083120313C5004208FC0045088A1529
:101D1000F1268A15831203134408F70043088A1139
:101D200092278A1508008316031387118712071656
:101D30008512831203131408F039023894009416A4
:101D400083160313941314178312031314128516A6
:101D5000080083120313C5003130B2004508B300F8
:101D60004208B4004408B5004308B600B701B80102
:101D70003230FC0007308A15F1268A1508008312DC
:101D80000313C6001530B2004608B3003230C2005B
:101D90000230C3003230C40002308A1581268A1511
:101DA000831203133208A0003308A10008008A152B
:101DB00027268A15003083120313CB000030CA0097
:101DC0002530C9008030C8008A1129278A158A1554
:101DD00093268A158A1522268A158A1508268A15B9
:101DE0000800FD00F62E8A153D268A15831203137E
:101DF00030080319FC2EFD2EF32E8A150E268A15A7
:101E00007C08F1007D088A150D278A158A1512268F
:101E10008A1583120313B0010800F400F501F601DE
:101E2000212F75087107F2007208840083130008DF
:101E30008A154B268A150130F5070318F60A00307B
:101E4000F6077408F200F30173087602031D2A2FC7
:101E500072087502031C2D2F2E2F112F0800F4007D
:101E6000F501F601442F75087107F200720884002D
:101E7000FF308A1572268A15831380000130F5071A
:101E80000318F60A0030F6077408F200F30173082D
:101E90007602031D4D2F72087502031C502F512F1F
:101EA000332F080083120313C8002030B200480803
:101EB000B3004608B4004708B5003230C20008300D
:101EC000C3003230C40004308A1581268A1583127B
:101ED00003133208A0003308A1003408A20035081B
:101EE000A3003608A4003708A5003808A600390862
:101EF000A7000800FC008312031342080319812F76
:101F0000822F8D2F862F8A153D268A158312031363
:101F1000300803198C2F8D2F832F8A150E268A15D2
:101F20007C088A1537268A15831203134408F100AA
:101F300043088A150D278A158A1512268A158312D9
:101F40000313B001080083120313CD0003308A1578
:101F500064268A1583120313C601C70100308A154F
:101F600052278A1501308A15BF268A15831203135A
:101F70004908C5004A088A1557268A1580308312F9
:101F80000313C2004A08CB00CC014B08C3004C0825
:101F9000C4004D088A15A9268A1508008A15D72677
:101FA0008A158A116D208A152D3083120313C20001
:101FB0008530C3000030C400C500A0308A1141251F
:101FC0008A1583120313DD01A03083120313C900A5
:101FD0004030CA005D088A15A3278A150B3083128A
:101FE0000313DA002630D9005D30D800D80BF62F65
:101FF000D90BF62FDA0BF62F0000E42F8A110428F4
:08400000FF3FFF3FFF3FFF3FC0
:04400E00F52FFF3E4D
:00000001FF
